:020000040000fa
:080000000002040000000000f2
:020000040000fa
:04000800fa020000f8
:020000040000fa
:04000c00fa020000f4
:020000040000fa
:04001000fa020000f0
:020000040000fa
:04001400fa020000ec
:020000040000fa
:04001800fa020000e8
:020000040000fa
:04001c00fa020000e4
:020000040000fa
:04002000fa020000e0
:020000040000fa
:04002400fa020000dc
:020000040000fa
:04002800fa020000d8
:020000040000fa
:04002c00fa020000d4
:020000040000fa
:04003000fa020000d0
:020000040000fa
:04003400fa020000cc
:020000040000fa
:04003800fa020000c8
:020000040000fa
:04003c00fa020000c4
:020000040000fa
:04004000fa020000c0
:020000040000fa
:04004400fa020000bc
:020000040000fa
:04004800fa020000b8
:020000040000fa
:04004c00fa020000b4
:020000040000fa
:04005000fa020000b0
:020000040000fa
:04005400fa020000ac
:020000040000fa
:04005800fa020000a8
:020000040000fa
:04005c00fa020000a4
:020000040000fa
:04006000fa020000a0
:020000040000fa
:04006400fa0200009c
:020000040000fa
:04006800fa02000098
:020000040000fa
:04006c00fa02000094
:020000040000fa
:04007000fa02000090
:020000040000fa
:04007400fa0200008c
:020000040000fa
:04007800fa02000088
:020000040000fa
:04007c00fa02000084
:020000040000fa
:04008000fa02000080
:020000040000fa
:04008400fa0200007c
:020000040000fa
:04008800fa02000078
:020000040000fa
:04008c00fa02000074
:020000040000fa
:04009000fa02000070
:020000040000fa
:04009400fa0200006c
:020000040000fa
:04009800fa02000068
:020000040000fa
:04009c00fa02000064
:020000040000fa
:0400a000fa02000060
:020000040000fa
:0400a400fa0200005c
:020000040000fa
:0400a800fa02000058
:020000040000fa
:0400ac00fa02000054
:020000040000fa
:0400b000fa02000050
:020000040000fa
:0400b400fa0200004c
:020000040000fa
:0400b800fa02000048
:020000040000fa
:0400bc00fa02000044
:020000040000fa
:0400c000fa02000040
:020000040000fa
:0400c400fa0200003c
:020000040000fa
:0400c800fa02000038
:020000040000fa
:0400cc00fa02000034
:020000040000fa
:0400d000fa02000030
:020000040000fa
:0400d400fa0200002c
:020000040000fa
:0400d800fa02000028
:020000040000fa
:0400dc00fa02000024
:020000040000fa
:0400e000fa02000020
:020000040000fa
:0400e400fa0200001c
:020000040000fa
:0400e800fa02000018
:020000040000fa
:0400ec00fa02000014
:020000040000fa
:0400f000fa02000010
:020000040000fa
:0400f400fa0200000c
:020000040000fa
:0400f800fa02000008
:020000040000fa
:0400fc00fa02000004
:020000040000fa
:04010000fa020000ff
:020000040000fa
:04010400fa020000fb
:020000040000fa
:04010800fa020000f7
:020000040000fa
:04010c00fa020000f3
:020000040000fa
:04011000fa020000ef
:020000040000fa
:04011400fa020000eb
:020000040000fa
:04011800fa020000e7
:020000040000fa
:04011c00fa020000e3
:020000040000fa
:04012000fa020000df
:020000040000fa
:04012400fa020000db
:020000040000fa
:04012800fa020000d7
:020000040000fa
:04012c00fa020000d3
:020000040000fa
:04013000fa020000cf
:020000040000fa
:04013400fa020000cb
:020000040000fa
:04013800fa020000c7
:020000040000fa
:04013c00fa020000c3
:020000040000fa
:04014000fa020000bf
:020000040000fa
:04014400fa020000bb
:020000040000fa
:04014800fa020000b7
:020000040000fa
:04014c00fa020000b3
:020000040000fa
:04015000fa020000af
:020000040000fa
:04015400fa020000ab
:020000040000fa
:04015800fa020000a7
:020000040000fa
:04015c00fa020000a3
:020000040000fa
:04016000fa0200009f
:020000040000fa
:04016400fa0200009b
:020000040000fa
:04016800fa02000097
:020000040000fa
:04016c00fa02000093
:020000040000fa
:04017000fa0200008f
:020000040000fa
:04017400fa0200008b
:020000040000fa
:04017800fa02000087
:020000040000fa
:04017c00fa02000083
:020000040000fa
:04018000fa0200007f
:020000040000fa
:04018400fa0200007b
:020000040000fa
:04018800fa02000077
:020000040000fa
:04018c00fa02000073
:020000040000fa
:04019000fa0200006f
:020000040000fa
:04019400fa0200006b
:020000040000fa
:04019800fa02000067
:020000040000fa
:04019c00fa02000063
:020000040000fa
:0401a000fa0200005f
:020000040000fa
:0401a400fa0200005b
:020000040000fa
:0401a800fa02000057
:020000040000fa
:0401ac00fa02000053
:020000040000fa
:0401b000fa0200004f
:020000040000fa
:0401b400fa0200004b
:020000040000fa
:0401b800fa02000047
:020000040000fa
:0401bc00fa02000043
:020000040000fa
:0401c000fa0200003f
:020000040000fa
:0401c400fa0200003b
:020000040000fa
:0401c800fa02000037
:020000040000fa
:0401cc00fa02000033
:020000040000fa
:0401d000fa0200002f
:020000040000fa
:0401d400fa0200002b
:020000040000fa
:0401d800fa02000027
:020000040000fa
:0401dc00fa02000023
:020000040000fa
:0401e000fa0200001f
:020000040000fa
:0401e400fa0200001b
:020000040000fa
:0401e800fa02000017
:020000040000fa
:0401ec00fa02000013
:020000040000fa
:0401f000fa0200000f
:020000040000fa
:0401f400fa0200000b
:020000040000fa
:0401f800fa02000007
:020000040000fa
:0401fc00fa02000003
:020000040000fa
:04020000fa020000fe
:020000040000fa
:04020400fa020000fa
:020000040000fa
:04020800fa020000f6
:020000040000fa
:04020c00fa020000f2
:020000040000fa
:04021000fa020000ee
:020000040000fa
:04021400fa020000ea
:020000040000fa
:04021800fa020000e6
:020000040000fa
:04021c00fa020000e2
:020000040000fa
:04022000fa020000de
:020000040000fa
:04022400fa020000da
:020000040000fa
:04022800fa020000d6
:020000040000fa
:04022c00fa020000d2
:020000040000fa
:04023000fa020000ce
:020000040000fa
:04023400fa020000ca
:020000040000fa
:04023800fa020000c6
:020000040000fa
:04023c00fa020000c2
:020000040000fa
:04024000fa020000be
:020000040000fa
:04024400fa020000ba
:020000040000fa
:04024800fa020000b6
:020000040000fa
:04024c00fa020000b2
:020000040000fa
:04025000fa020000ae
:020000040000fa
:04025400fa020000aa
:020000040000fa
:04025800fa020000a6
:020000040000fa
:04025c00fa020000a2
:020000040000fa
:04026000fa0200009e
:020000040000fa
:04026400fa0200009a
:020000040000fa
:100400000f0021000eff2d000e01880000000000eb
:10041000000020000000e000020032000001200087
:100420002002880014000700740007000000e000ac
:1004300003003a0000002000010020000200370005
:100440000000200001002000810f70000100320038
:100450000f000700000020000000e0000200320052
:10046000000002000000000028040200000000005c
:100470000040da000000fe00200020000000e00044
:1004800002003200100020009001880000000600e9
:10049000a1028800800478000000eb001f003700f4
:1004a000e284440054a0b4009905ba00e2844400f8
:1004b00054a0b4009906ba00e284440054a0b400e9
:1004c0000006eb00476fde00fd07b200ae018800ba
:1004d000636ce10003003a000ad801000000eb0061
:1004e0000e003700606ce10008003a00004deb00a0
:1004f0000a05e800020039003420ec000af0a000f0
:100500008b05e900f9ff3e00040037006168e10057
:10051000010032000086eb000b00070019c7ba008b
:100520000e04e0001905ba0003003a000a00e000da
:10053000dbff3a0000000600fe07b200ae028800b2
:100540008a047800f5ff37000cd0a300e20f4d00bd
:100550001c003b0089027800354dba000a05e8000e
:10056000020039003420ec000af0a0008b05e900fd
:100570000f003200254dba000a05e80002003900dc
:100580003420ec000af0a0008b05e90008003200de
:100590000c00e0000600320015cdba000a05e800a4
:1005a000020039003420ec000af0a0008b05e900bd
:1005b0008984e80054a0b4000b00e000e2ff3a0098
:1005c000000006009902ba00055d78008b05e9007d
:1005d000f7ff3200c82ade00055d78008b05e900d0
:1005e000f3ff32000c00e000f1ff320019ddba0029
:1005f000eeff37000040da000000fe0000000500ba
:100600004f89de008201780000003700881f7800e3
:10061000030478000300e00007003d0060001000c4
:10062000e080180060011900e081190002003b0021
:1006300001f02d00030037000400070008f0a700b8
:1006400001f0a0004f04780000000600889fbe0063
:100650008a9fbe0000827000040271000482710053
:10066000260032000004be000200be006011b80087
:100670006b092000950220000182cf000a0039009a
:100680000541b1000082cf00070039000541b100eb
:100690000982cf00040039000541b1000882cf0073
:1006a000010039000541b10005425200120032003c
:1006b0000a003b0082817100610164008100d10069
:1006c0000080d3008984d3000884d3008b05e80020
:1006d0000442e800f7ff3a0007003700080444002e
:1006e00089844c0000004800818048008b05e900a7
:1006f0000442e900f9ff3a00030007004f05be007d
:100700004f04be00000006008100200061805500fb
:100710000b003d000b00200061fe2f000100e100f6
:100720001d00340082817100610164008904d100e0
:100730000884d3000000e800faff3a0071002000ae
:1007400061006400030070000200600009003200d4
:1007500061044400e0844c000988a50005003200d3
:100760008b05e8006808e10002003a008904d10026
:100770000884d300f20f20000258e10005003d007c
:10078000c75ddd00f907b2008980750008007800b8
:10079000000006000bf827008b0078000000050021
:020000040000fa
:1007a0000c00fa004007980051079800de00900006
:1007b000800c2000808f500017003c000044250072
:1007c00091c82400008fbe00de009000803e200013
:1007d00000017800110009008200d800cf80de00ff
:1007e00087ff070020079800310798000421a9001f
:1007f000a0bb2d00100888000021ef002108800018
:100800000003200001007000200888000068a90093
:1008100005e1a80001003700000000000080fa0098
:10082000000006000200fa00000f7800000000003f
:1008300000408000680060000000e000fcff320023
:100840000068a90005e1a9000080fa000000060088
:100850000200fa006e2eef00707380007072880044
:1008600070728000f0718800f071800070718800f3
:1008700070718000f0708800f070800070708800e7
:10088000000ea900040ea9000000eb00000f780084
:100890001e0078000000e00004003a00040ea800ea
:1008a00010002000000f780003003700040ea9009c
:1008b0000000eb00000f7800810c200010002000e9
:1008c000b7ff070010002000d6ff0700f0ff370039
:00000001FF
